{
  "_format": "hh-sol-artifact-1",
  "contractName": "Nordle",
  "sourceName": "contracts/Nordle.sol",
  "abi": [
    {
      "inputs": [
        {
          "internalType": "address",
          "name": "_linkToken",
          "type": "address"
        },
        {
          "internalType": "address",
          "name": "_linkOracle",
          "type": "address"
        },
        {
          "internalType": "address",
          "name": "_linkVRFCoordinator",
          "type": "address"
        },
        {
          "internalType": "bytes32",
          "name": "_sKeyHash",
          "type": "bytes32"
        },
        {
          "internalType": "uint64",
          "name": "_vrfSubscriptionId",
          "type": "uint64"
        },
        {
          "internalType": "address",
          "name": "_nordleWordBank",
          "type": "address"
        }
      ],
      "stateMutability": "nonpayable",
      "type": "constructor"
    },
    {
      "inputs": [
        {
          "internalType": "address",
          "name": "have",
          "type": "address"
        },
        {
          "internalType": "address",
          "name": "want",
          "type": "address"
        }
      ],
      "name": "OnlyCoordinatorCanFulfill",
      "type": "error"
    },
    {
      "anonymous": false,
      "inputs": [
        {
          "indexed": true,
          "internalType": "address",
          "name": "owner",
          "type": "address"
        },
        {
          "indexed": true,
          "internalType": "address",
          "name": "approved",
          "type": "address"
        },
        {
          "indexed": true,
          "internalType": "uint256",
          "name": "tokenId",
          "type": "uint256"
        }
      ],
      "name": "Approval",
      "type": "event"
    },
    {
      "anonymous": false,
      "inputs": [
        {
          "indexed": true,
          "internalType": "address",
          "name": "owner",
          "type": "address"
        },
        {
          "indexed": true,
          "internalType": "address",
          "name": "operator",
          "type": "address"
        },
        {
          "indexed": false,
          "internalType": "bool",
          "name": "approved",
          "type": "bool"
        }
      ],
      "name": "ApprovalForAll",
      "type": "event"
    },
    {
      "anonymous": false,
      "inputs": [
        {
          "indexed": true,
          "internalType": "bytes32",
          "name": "id",
          "type": "bytes32"
        }
      ],
      "name": "ChainlinkCancelled",
      "type": "event"
    },
    {
      "anonymous": false,
      "inputs": [
        {
          "indexed": true,
          "internalType": "bytes32",
          "name": "id",
          "type": "bytes32"
        }
      ],
      "name": "ChainlinkFulfilled",
      "type": "event"
    },
    {
      "anonymous": false,
      "inputs": [
        {
          "indexed": true,
          "internalType": "bytes32",
          "name": "id",
          "type": "bytes32"
        }
      ],
      "name": "ChainlinkRequested",
      "type": "event"
    },
    {
      "anonymous": false,
      "inputs": [
        {
          "indexed": true,
          "internalType": "address",
          "name": "from",
          "type": "address"
        },
        {
          "indexed": true,
          "internalType": "address",
          "name": "to",
          "type": "address"
        }
      ],
      "name": "OwnershipTransferRequested",
      "type": "event"
    },
    {
      "anonymous": false,
      "inputs": [
        {
          "indexed": true,
          "internalType": "address",
          "name": "from",
          "type": "address"
        },
        {
          "indexed": true,
          "internalType": "address",
          "name": "to",
          "type": "address"
        }
      ],
      "name": "OwnershipTransferred",
      "type": "event"
    },
    {
      "anonymous": false,
      "inputs": [
        {
          "indexed": true,
          "internalType": "address",
          "name": "from",
          "type": "address"
        },
        {
          "indexed": true,
          "internalType": "address",
          "name": "to",
          "type": "address"
        },
        {
          "indexed": true,
          "internalType": "uint256",
          "name": "tokenId",
          "type": "uint256"
        }
      ],
      "name": "Transfer",
      "type": "event"
    },
    {
      "inputs": [],
      "name": "acceptOwnership",
      "outputs": [],
      "stateMutability": "nonpayable",
      "type": "function"
    },
    {
      "inputs": [
        {
          "internalType": "address",
          "name": "to",
          "type": "address"
        },
        {
          "internalType": "uint256",
          "name": "tokenId",
          "type": "uint256"
        }
      ],
      "name": "approve",
      "outputs": [],
      "stateMutability": "nonpayable",
      "type": "function"
    },
    {
      "inputs": [
        {
          "internalType": "address",
          "name": "owner",
          "type": "address"
        }
      ],
      "name": "balanceOf",
      "outputs": [
        {
          "internalType": "uint256",
          "name": "",
          "type": "uint256"
        }
      ],
      "stateMutability": "view",
      "type": "function"
    },
    {
      "inputs": [
        {
          "internalType": "bytes32",
          "name": "_apiRequestId",
          "type": "bytes32"
        },
        {
          "internalType": "bytes",
          "name": "_bytesData",
          "type": "bytes"
        }
      ],
      "name": "fulfillCreateWord",
      "outputs": [],
      "stateMutability": "nonpayable",
      "type": "function"
    },
    {
      "inputs": [
        {
          "internalType": "uint256",
          "name": "tokenId",
          "type": "uint256"
        }
      ],
      "name": "getApproved",
      "outputs": [
        {
          "internalType": "address",
          "name": "",
          "type": "address"
        }
      ],
      "stateMutability": "view",
      "type": "function"
    },
    {
      "inputs": [
        {
          "internalType": "address",
          "name": "user",
          "type": "address"
        }
      ],
      "name": "getBurnedTokenIds",
      "outputs": [
        {
          "internalType": "uint256[]",
          "name": "",
          "type": "uint256[]"
        }
      ],
      "stateMutability": "view",
      "type": "function"
    },
    {
      "inputs": [
        {
          "internalType": "address",
          "name": "user",
          "type": "address"
        }
      ],
      "name": "getTokenIds",
      "outputs": [
        {
          "internalType": "uint256[]",
          "name": "",
          "type": "uint256[]"
        }
      ],
      "stateMutability": "view",
      "type": "function"
    },
    {
      "inputs": [
        {
          "internalType": "address",
          "name": "owner",
          "type": "address"
        },
        {
          "internalType": "address",
          "name": "operator",
          "type": "address"
        }
      ],
      "name": "isApprovedForAll",
      "outputs": [
        {
          "internalType": "bool",
          "name": "",
          "type": "bool"
        }
      ],
      "stateMutability": "view",
      "type": "function"
    },
    {
      "inputs": [],
      "name": "name",
      "outputs": [
        {
          "internalType": "string",
          "name": "",
          "type": "string"
        }
      ],
      "stateMutability": "view",
      "type": "function"
    },
    {
      "inputs": [],
      "name": "nordleWordBank",
      "outputs": [
        {
          "internalType": "contract NordleWordBank",
          "name": "",
          "type": "address"
        }
      ],
      "stateMutability": "view",
      "type": "function"
    },
    {
      "inputs": [],
      "name": "owner",
      "outputs": [
        {
          "internalType": "address",
          "name": "",
          "type": "address"
        }
      ],
      "stateMutability": "view",
      "type": "function"
    },
    {
      "inputs": [
        {
          "internalType": "uint256",
          "name": "tokenId",
          "type": "uint256"
        }
      ],
      "name": "ownerOf",
      "outputs": [
        {
          "internalType": "address",
          "name": "",
          "type": "address"
        }
      ],
      "stateMutability": "view",
      "type": "function"
    },
    {
      "inputs": [
        {
          "internalType": "uint256",
          "name": "requestId",
          "type": "uint256"
        },
        {
          "internalType": "uint256[]",
          "name": "randomWords",
          "type": "uint256[]"
        }
      ],
      "name": "rawFulfillRandomWords",
      "outputs": [],
      "stateMutability": "nonpayable",
      "type": "function"
    },
    {
      "inputs": [
        {
          "internalType": "uint256[]",
          "name": "_tokensToCombine",
          "type": "uint256[]"
        }
      ],
      "name": "requestCombine",
      "outputs": [
        {
          "internalType": "string",
          "name": "newWord",
          "type": "string"
        }
      ],
      "stateMutability": "nonpayable",
      "type": "function"
    },
    {
      "inputs": [
        {
          "internalType": "string",
          "name": "_word",
          "type": "string"
        }
      ],
      "name": "requestCreateWord",
      "outputs": [],
      "stateMutability": "payable",
      "type": "function"
    },
    {
      "inputs": [],
      "name": "requestCreateWord",
      "outputs": [],
      "stateMutability": "nonpayable",
      "type": "function"
    },
    {
      "inputs": [
        {
          "internalType": "address",
          "name": "from",
          "type": "address"
        },
        {
          "internalType": "address",
          "name": "to",
          "type": "address"
        },
        {
          "internalType": "uint256",
          "name": "tokenId",
          "type": "uint256"
        }
      ],
      "name": "safeTransferFrom",
      "outputs": [],
      "stateMutability": "nonpayable",
      "type": "function"
    },
    {
      "inputs": [
        {
          "internalType": "address",
          "name": "from",
          "type": "address"
        },
        {
          "internalType": "address",
          "name": "to",
          "type": "address"
        },
        {
          "internalType": "uint256",
          "name": "tokenId",
          "type": "uint256"
        },
        {
          "internalType": "bytes",
          "name": "data",
          "type": "bytes"
        }
      ],
      "name": "safeTransferFrom",
      "outputs": [],
      "stateMutability": "nonpayable",
      "type": "function"
    },
    {
      "inputs": [
        {
          "internalType": "address",
          "name": "operator",
          "type": "address"
        },
        {
          "internalType": "bool",
          "name": "approved",
          "type": "bool"
        }
      ],
      "name": "setApprovalForAll",
      "outputs": [],
      "stateMutability": "nonpayable",
      "type": "function"
    },
    {
      "inputs": [
        {
          "internalType": "bytes4",
          "name": "interfaceId",
          "type": "bytes4"
        }
      ],
      "name": "supportsInterface",
      "outputs": [
        {
          "internalType": "bool",
          "name": "",
          "type": "bool"
        }
      ],
      "stateMutability": "view",
      "type": "function"
    },
    {
      "inputs": [],
      "name": "symbol",
      "outputs": [
        {
          "internalType": "string",
          "name": "",
          "type": "string"
        }
      ],
      "stateMutability": "view",
      "type": "function"
    },
    {
      "inputs": [
        {
          "internalType": "uint256",
          "name": "tokenId",
          "type": "uint256"
        }
      ],
      "name": "tokenURI",
      "outputs": [
        {
          "internalType": "string",
          "name": "",
          "type": "string"
        }
      ],
      "stateMutability": "view",
      "type": "function"
    },
    {
      "inputs": [
        {
          "internalType": "uint256",
          "name": "",
          "type": "uint256"
        }
      ],
      "name": "tokenWords",
      "outputs": [
        {
          "internalType": "string",
          "name": "",
          "type": "string"
        }
      ],
      "stateMutability": "view",
      "type": "function"
    },
    {
      "inputs": [
        {
          "internalType": "address",
          "name": "from",
          "type": "address"
        },
        {
          "internalType": "address",
          "name": "to",
          "type": "address"
        },
        {
          "internalType": "uint256",
          "name": "tokenId",
          "type": "uint256"
        }
      ],
      "name": "transferFrom",
      "outputs": [],
      "stateMutability": "nonpayable",
      "type": "function"
    },
    {
      "inputs": [
        {
          "internalType": "address",
          "name": "to",
          "type": "address"
        }
      ],
      "name": "transferOwnership",
      "outputs": [],
      "stateMutability": "nonpayable",
      "type": "function"
    },
    {
      "inputs": [],
      "name": "withdraw",
      "outputs": [],
      "stateMutability": "nonpayable",
      "type": "function"
    },
    {
      "inputs": [],
      "name": "wordForcedPrice",
      "outputs": [
        {
          "internalType": "uint256",
          "name": "",
          "type": "uint256"
        }
      ],
      "stateMutability": "view",
      "type": "function"
    },
    {
      "stateMutability": "payable",
      "type": "receive"
    }
  ],
  "bytecode": "0x60a06040526001600b5566b1a2bc2ec50000601b553480156200002157600080fd5b5060405162006896380380620068968339818101604052810190620000479190620006a5565b83338060006040518060400160405280600681526020017f4e6f72646c6500000000000000000000000000000000000000000000000000008152506040518060400160405280600381526020017f4e524400000000000000000000000000000000000000000000000000000000008152508160009080519060200190620000d09291906200050b565b508060019080519060200190620000e99291906200050b565b505050600073ffffffffffffffffffffffffffffffffffffffff168273ffffffffffffffffffffffffffffffffffffffff1614156200015f576040517f08c379a00000000000000000000000000000000000000000000000000000000081526004016200015690620007a2565b60405180910390fd5b81600d60006101000a81548173ffffffffffffffffffffffffffffffffffffffff021916908373ffffffffffffffffffffffffffffffffffffffff160217905550600073ffffffffffffffffffffffffffffffffffffffff168173ffffffffffffffffffffffffffffffffffffffff1614620001e757620001e6816200035160201b60201c565b5b5050508073ffffffffffffffffffffffffffffffffffffffff1660808173ffffffffffffffffffffffffffffffffffffffff16815250505062000230866200048360201b60201c565b6200024185620004c760201b60201c565b7f3764613237303266333766643438653562316239613537313565333530396236601181905550600a670de0b6b3a76400006001620002819190620007fd565b6200028d91906200088d565b60128190555083600f60006101000a81548173ffffffffffffffffffffffffffffffffffffffff021916908373ffffffffffffffffffffffffffffffffffffffff16021790555081600f60146101000a81548167ffffffffffffffff021916908367ffffffffffffffff1602179055508260108190555080601c60006101000a81548173ffffffffffffffffffffffffffffffffffffffff021916908373ffffffffffffffffffffffffffffffffffffffff1602179055505050505050506200099c565b3373ffffffffffffffffffffffffffffffffffffffff168173ffffffffffffffffffffffffffffffffffffffff161415620003c3576040517f08c379a0000000000000000000000000000000000000000000000000000000008152600401620003ba9062000915565b60405180910390fd5b80600e60006101000a81548173ffffffffffffffffffffffffffffffffffffffff021916908373ffffffffffffffffffffffffffffffffffffffff1602179055508073ffffffffffffffffffffffffffffffffffffffff16600d60009054906101000a900473ffffffffffffffffffffffffffffffffffffffff1673ffffffffffffffffffffffffffffffffffffffff167fed8889f560326eb138920d842192f0eb3dd22b4f139c87a2c57538e05bae127860405160405180910390a350565b80600960006101000a81548173ffffffffffffffffffffffffffffffffffffffff021916908373ffffffffffffffffffffffffffffffffffffffff16021790555050565b80600a60006101000a81548173ffffffffffffffffffffffffffffffffffffffff021916908373ffffffffffffffffffffffffffffffffffffffff16021790555050565b828054620005199062000966565b90600052602060002090601f0160209004810192826200053d576000855562000589565b82601f106200055857805160ff191683800117855562000589565b8280016001018555821562000589579182015b82811115620005885782518255916020019190600101906200056b565b5b5090506200059891906200059c565b5090565b5b80821115620005b75760008160009055506001016200059d565b5090565b600080fd5b600073ffffffffffffffffffffffffffffffffffffffff82169050919050565b6000620005ed82620005c0565b9050919050565b620005ff81620005e0565b81146200060b57600080fd5b50565b6000815190506200061f81620005f4565b92915050565b6000819050919050565b6200063a8162000625565b81146200064657600080fd5b50565b6000815190506200065a816200062f565b92915050565b600067ffffffffffffffff82169050919050565b6200067f8162000660565b81146200068b57600080fd5b50565b6000815190506200069f8162000674565b92915050565b60008060008060008060c08789031215620006c557620006c4620005bb565b5b6000620006d589828a016200060e565b9650506020620006e889828a016200060e565b9550506040620006fb89828a016200060e565b94505060606200070e89828a0162000649565b93505060806200072189828a016200068e565b92505060a06200073489828a016200060e565b9150509295509295509295565b600082825260208201905092915050565b7f43616e6e6f7420736574206f776e657220746f207a65726f0000000000000000600082015250565b60006200078a60188362000741565b9150620007978262000752565b602082019050919050565b60006020820190508181036000830152620007bd816200077b565b9050919050565b6000819050919050565b7f4e487b7100000000000000000000000000000000000000000000000000000000600052601160045260246000fd5b60006200080a82620007c4565b91506200081783620007c4565b9250817fffffffffffffffffffffffffffffffffffffffffffffffffffffffffffffffff0483118215151615620008535762000852620007ce565b5b828202905092915050565b7f4e487b7100000000000000000000000000000000000000000000000000000000600052601260045260246000fd5b60006200089a82620007c4565b9150620008a783620007c4565b925082620008ba57620008b96200085e565b5b828204905092915050565b7f43616e6e6f74207472616e7366657220746f2073656c66000000000000000000600082015250565b6000620008fd60178362000741565b91506200090a82620008c5565b602082019050919050565b600060208201905081810360008301526200093081620008ee565b9050919050565b7f4e487b7100000000000000000000000000000000000000000000000000000000600052602260045260246000fd5b600060028204905060018216806200097f57607f821691505b6020821081141562000996576200099562000937565b5b50919050565b608051615ed7620009bf6000396000818161096201526109b60152615ed76000f3fe6080604052600436106101a05760003560e01c806379ba5097116100ec578063b88d4fde1161008a578063d004b03611610064578063d004b036146105ae578063e985e9c5146105eb578063f2fde38b14610628578063feca8b2014610651576101a7565b8063b88d4fde1461051f578063c87b56dd14610548578063cab7157514610585576101a7565b806390c3d9dc116100c657806390c3d9dc1461047757806395d89b411461048e578063a22cb465146104b9578063b2787fc1146104e2576101a7565b806379ba50971461041957806383096f76146104305780638da5cb5b1461044c576101a7565b80632ef7db4a1161015957806342842e0e1161013357806342842e0e1461034b5780635716a839146103745780636352211e1461039f57806370a08231146103dc576101a7565b80632ef7db4a146102cc5780633ccfd60b14610309578063413f016f14610320576101a7565b806301ffc9a7146101ac57806306fdde03146101e9578063081812fc14610214578063095ea7b3146102515780631fe543e31461027a57806323b872dd146102a3576101a7565b366101a757005b600080fd5b3480156101b857600080fd5b506101d360048036038101906101ce9190613ed9565b61068e565b6040516101e09190613f21565b60405180910390f35b3480156101f557600080fd5b506101fe610770565b60405161020b9190613fd5565b60405180910390f35b34801561022057600080fd5b5061023b6004803603810190610236919061402d565b610802565b604051610248919061409b565b60405180910390f35b34801561025d57600080fd5b50610278600480360381019061027391906140e2565b610848565b005b34801561028657600080fd5b506102a1600480360381019061029c919061426a565b610960565b005b3480156102af57600080fd5b506102ca60048036038101906102c591906142c6565b610a20565b005b3480156102d857600080fd5b506102f360048036038101906102ee9190614319565b610a80565b6040516103009190614404565b60405180910390f35b34801561031557600080fd5b5061031e610b17565b005b34801561032c57600080fd5b50610335610d11565b6040516103429190614485565b60405180910390f35b34801561035757600080fd5b50610372600480360381019061036d91906142c6565b610d37565b005b34801561038057600080fd5b50610389610d57565b60405161039691906144af565b60405180910390f35b3480156103ab57600080fd5b506103c660048036038101906103c1919061402d565b610d5d565b6040516103d3919061409b565b60405180910390f35b3480156103e857600080fd5b5061040360048036038101906103fe9190614319565b610e0f565b60405161041091906144af565b60405180910390f35b34801561042557600080fd5b5061042e610ec7565b005b61044a6004803603810190610445919061457f565b61105e565b005b34801561045857600080fd5b506104616111d5565b60405161046e919061409b565b60405180910390f35b34801561048357600080fd5b5061048c6111ff565b005b34801561049a57600080fd5b506104a361131b565b6040516104b09190613fd5565b60405180910390f35b3480156104c557600080fd5b506104e060048036038101906104db91906145f4565b6113ad565b005b3480156104ee57600080fd5b506105096004803603810190610504919061402d565b6113c3565b6040516105169190613fd5565b60405180910390f35b34801561052b57600080fd5b50610546600480360381019061054191906146d5565b611463565b005b34801561055457600080fd5b5061056f600480360381019061056a919061402d565b6114c5565b60405161057c9190613fd5565b60405180910390f35b34801561059157600080fd5b506105ac60048036038101906105a7919061478e565b6115d8565b005b3480156105ba57600080fd5b506105d560048036038101906105d09190614319565b6116fb565b6040516105e29190614404565b60405180910390f35b3480156105f757600080fd5b50610612600480360381019061060d91906147ea565b611792565b60405161061f9190613f21565b60405180910390f35b34801561063457600080fd5b5061064f600480360381019061064a9190614319565b611826565b005b34801561065d57600080fd5b506106786004803603810190610673919061482a565b61183a565b6040516106859190613fd5565b60405180910390f35b60007f80ac58cd000000000000000000000000000000000000000000000000000000007bffffffffffffffffffffffffffffffffffffffffffffffffffffffff1916827bffffffffffffffffffffffffffffffffffffffffffffffffffffffff1916148061075957507f5b5e139f000000000000000000000000000000000000000000000000000000007bffffffffffffffffffffffffffffffffffffffffffffffffffffffff1916827bffffffffffffffffffffffffffffffffffffffffffffffffffffffff1916145b80610769575061076882611a1b565b5b9050919050565b60606000805461077f906148a2565b80601f01602080910402602001604051908101604052809291908181526020018280546107ab906148a2565b80156107f85780601f106107cd576101008083540402835291602001916107f8565b820191906000526020600020905b8154815290600101906020018083116107db57829003601f168201915b5050505050905090565b600061080d82611a85565b6004600083815260200190815260200160002060009054906101000a900473ffffffffffffffffffffffffffffffffffffffff169050919050565b600061085382610d5d565b90508073ffffffffffffffffffffffffffffffffffffffff168373ffffffffffffffffffffffffffffffffffffffff1614156108c4576040517f08c379a00000000000000000000000000000000000000000000000000000000081526004016108bb90614946565b60405180910390fd5b8073ffffffffffffffffffffffffffffffffffffffff166108e3611ad0565b73ffffffffffffffffffffffffffffffffffffffff16148061091257506109118161090c611ad0565b611792565b5b610951576040517f08c379a0000000000000000000000000000000000000000000000000000000008152600401610948906149d8565b60405180910390fd5b61095b8383611ad8565b505050565b7f000000000000000000000000000000000000000000000000000000000000000073ffffffffffffffffffffffffffffffffffffffff163373ffffffffffffffffffffffffffffffffffffffff1614610a1257337f00000000000000000000000000000000000000000000000000000000000000006040517f1cf993f4000000000000000000000000000000000000000000000000000000008152600401610a099291906149f8565b60405180910390fd5b610a1c8282611b91565b5050565b610a31610a2b611ad0565b82611d35565b610a70576040517f08c379a0000000000000000000000000000000000000000000000000000000008152600401610a6790614a93565b60405180910390fd5b610a7b838383611dca565b505050565b6060601660008373ffffffffffffffffffffffffffffffffffffffff1673ffffffffffffffffffffffffffffffffffffffff168152602001908152602001600020805480602002602001604051908101604052809291908181526020018280548015610b0b57602002820191906000526020600020905b815481526020019060010190808311610af7575b50505050509050919050565b610b1f612031565b6000610b296120c3565b90508073ffffffffffffffffffffffffffffffffffffffff1663a9059cbb338373ffffffffffffffffffffffffffffffffffffffff166370a08231306040518263ffffffff1660e01b8152600401610b81919061409b565b602060405180830381865afa158015610b9e573d6000803e3d6000fd5b505050506040513d601f19601f82011682018060405250810190610bc29190614ac8565b6040518363ffffffff1660e01b8152600401610bdf929190614af5565b6020604051808303816000875af1158015610bfe573d6000803e3d6000fd5b505050506040513d601f19601f82011682018060405250810190610c229190614b33565b610c61576040517f08c379a0000000000000000000000000000000000000000000000000000000008152600401610c5890614bac565b60405180910390fd5b60003373ffffffffffffffffffffffffffffffffffffffff1647604051610c8790614bfd565b60006040518083038185875af1925050503d8060008114610cc4576040519150601f19603f3d011682016040523d82523d6000602084013e610cc9565b606091505b5050905080610d0d576040517f08c379a0000000000000000000000000000000000000000000000000000000008152600401610d0490614bac565b60405180910390fd5b5050565b601c60009054906101000a900473ffffffffffffffffffffffffffffffffffffffff1681565b610d5283838360405180602001604052806000815250611463565b505050565b601b5481565b6000806002600084815260200190815260200160002060009054906101000a900473ffffffffffffffffffffffffffffffffffffffff169050600073ffffffffffffffffffffffffffffffffffffffff168173ffffffffffffffffffffffffffffffffffffffff161415610e06576040517f08c379a0000000000000000000000000000000000000000000000000000000008152600401610dfd90614c5e565b60405180910390fd5b80915050919050565b60008073ffffffffffffffffffffffffffffffffffffffff168273ffffffffffffffffffffffffffffffffffffffff161415610e80576040517f08c379a0000000000000000000000000000000000000000000000000000000008152600401610e7790614cf0565b60405180910390fd5b600360008373ffffffffffffffffffffffffffffffffffffffff1673ffffffffffffffffffffffffffffffffffffffff168152602001908152602001600020549050919050565b600e60009054906101000a900473ffffffffffffffffffffffffffffffffffffffff1673ffffffffffffffffffffffffffffffffffffffff163373ffffffffffffffffffffffffffffffffffffffff1614610f57576040517f08c379a0000000000000000000000000000000000000000000000000000000008152600401610f4e90614d5c565b60405180910390fd5b6000600d60009054906101000a900473ffffffffffffffffffffffffffffffffffffffff16905033600d60006101000a81548173ffffffffffffffffffffffffffffffffffffffff021916908373ffffffffffffffffffffffffffffffffffffffff1602179055506000600e60006101000a81548173ffffffffffffffffffffffffffffffffffffffff021916908373ffffffffffffffffffffffffffffffffffffffff1602179055503373ffffffffffffffffffffffffffffffffffffffff168173ffffffffffffffffffffffffffffffffffffffff167f8be0079c531659141344cd1fd0a4f28419497f9722a3daafe3b4186f6b6457e060405160405180910390a350565b601b5434146110a2576040517f08c379a000000000000000000000000000000000000000000000000000000000815260040161109990614dc8565b60405180910390fd5b601c60009054906101000a900473ffffffffffffffffffffffffffffffffffffffff1673ffffffffffffffffffffffffffffffffffffffff1663261a323e826040518263ffffffff1660e01b81526004016110fd9190613fd5565b602060405180830381865afa15801561111a573d6000803e3d6000fd5b505050506040513d601f19601f8201168201806040525081019061113e9190614b33565b61117d576040517f08c379a000000000000000000000000000000000000000000000000000000000815260040161117490614e34565b60405180910390fd5b6111d18133600067ffffffffffffffff81111561119d5761119c614127565b5b6040519080825280602002602001820160405280156111cb5781602001602082028036833780820191505090505b506120ed565b5050565b6000600d60009054906101000a900473ffffffffffffffffffffffffffffffffffffffff16905090565b6000600f60009054906101000a900473ffffffffffffffffffffffffffffffffffffffff1673ffffffffffffffffffffffffffffffffffffffff16635d3b1d30601054600f60149054906101000a900467ffffffffffffffff1660036207a12060016040518663ffffffff1660e01b8152600401611281959493929190614f55565b6020604051808303816000875af11580156112a0573d6000803e3d6000fd5b505050506040513d601f19601f820116820180604052508101906112c49190614ac8565b905033601a600083815260200190815260200160002060006101000a81548173ffffffffffffffffffffffffffffffffffffffff021916908373ffffffffffffffffffffffffffffffffffffffff16021790555050565b60606001805461132a906148a2565b80601f0160208091040260200160405190810160405280929190818152602001828054611356906148a2565b80156113a35780601f10611378576101008083540402835291602001916113a3565b820191906000526020600020905b81548152906001019060200180831161138657829003601f168201915b5050505050905090565b6113bf6113b8611ad0565b83836121b6565b5050565b601760205280600052604060002060009150905080546113e2906148a2565b80601f016020809104026020016040519081016040528092919081815260200182805461140e906148a2565b801561145b5780601f106114305761010080835404028352916020019161145b565b820191906000526020600020905b81548152906001019060200180831161143e57829003601f168201915b505050505081565b61147461146e611ad0565b83611d35565b6114b3576040517f08c379a00000000000000000000000000000000000000000000000000000000081526004016114aa90614a93565b60405180910390fd5b6114bf84848484612323565b50505050565b60606114d082611a85565b60006006600084815260200190815260200160002080546114f0906148a2565b80601f016020809104026020016040519081016040528092919081815260200182805461151c906148a2565b80156115695780601f1061153e57610100808354040283529160200191611569565b820191906000526020600020905b81548152906001019060200180831161154c57829003601f168201915b50505050509050600061157a61237f565b90506000815114156115905781925050506115d3565b6000825111156115c55780826040516020016115ad929190614fe4565b604051602081830303815290604052925050506115d3565b6115ce84612396565b925050505b919050565b81600c600082815260200190815260200160002060009054906101000a900473ffffffffffffffffffffffffffffffffffffffff1673ffffffffffffffffffffffffffffffffffffffff163373ffffffffffffffffffffffffffffffffffffffff161461167a576040517f08c379a00000000000000000000000000000000000000000000000000000000081526004016116719061507a565b60405180910390fd5b600c600082815260200190815260200160002060006101000a81549073ffffffffffffffffffffffffffffffffffffffff0219169055807f7cc135e0cebb02c3480ae5d74d377283180a2601f8f644edf7987b009316c63a60405160405180910390a260008360001c905060008390506116f482826123fe565b5050505050565b6060601460008373ffffffffffffffffffffffffffffffffffffffff1673ffffffffffffffffffffffffffffffffffffffff16815260200190815260200160002080548060200260200160405190810160405280929190818152602001828054801561178657602002820191906000526020600020905b815481526020019060010190808311611772575b50505050509050919050565b6000600560008473ffffffffffffffffffffffffffffffffffffffff1673ffffffffffffffffffffffffffffffffffffffff16815260200190815260200160002060008373ffffffffffffffffffffffffffffffffffffffff1673ffffffffffffffffffffffffffffffffffffffff16815260200190815260200160002060009054906101000a900460ff16905092915050565b61182e612031565b611837816126bf565b50565b60603373ffffffffffffffffffffffffffffffffffffffff166118778360008151811061186a5761186961509a565b5b6020026020010151610d5d565b73ffffffffffffffffffffffffffffffffffffffff161461189757600080fd5b60176000836000815181106118af576118ae61509a565b5b6020026020010151815260200190815260200160002080546118d0906148a2565b80601f01602080910402602001604051908101604052809291908181526020018280546118fc906148a2565b80156119495780601f1061191e57610100808354040283529160200191611949565b820191906000526020600020905b81548152906001019060200180831161192c57829003601f168201915b505050505090506000600190505b8251811015611a095760008382815181106119755761197461509a565b5b602002602001015190503373ffffffffffffffffffffffffffffffffffffffff1661199f82610d5d565b73ffffffffffffffffffffffffffffffffffffffff16146119bf57600080fd5b82601760008381526020019081526020016000206040516020016119e4929190615183565b6040516020818303038152906040529250508080611a01906151e5565b915050611957565b50611a158133846120ed565b50919050565b60007f01ffc9a7000000000000000000000000000000000000000000000000000000007bffffffffffffffffffffffffffffffffffffffffffffffffffffffff1916827bffffffffffffffffffffffffffffffffffffffffffffffffffffffff1916149050919050565b611a8e816127ee565b611acd576040517f08c379a0000000000000000000000000000000000000000000000000000000008152600401611ac490614c5e565b60405180910390fd5b50565b600033905090565b816004600083815260200190815260200160002060006101000a81548173ffffffffffffffffffffffffffffffffffffffff021916908373ffffffffffffffffffffffffffffffffffffffff160217905550808273ffffffffffffffffffffffffffffffffffffffff16611b4b83610d5d565b73ffffffffffffffffffffffffffffffffffffffff167f8c5be1e5ebec7d5bd14f71427d1e84f3dd0314c0f7b2291e5b200ac8c7c3b92560405160405180910390a45050565b6000601c60009054906101000a900473ffffffffffffffffffffffffffffffffffffffff1673ffffffffffffffffffffffffffffffffffffffff1663096f28776040518163ffffffff1660e01b8152600401600060405180830381865afa158015611c00573d6000803e3d6000fd5b505050506040513d6000823e3d601f19601f82011682018060405250810190611c29919061537f565b90506000815183600081518110611c4357611c4261509a565b5b6020026020010151611c5591906153f7565b9050611cf8828281518110611c6d57611c6c61509a565b5b6020026020010151601a600087815260200190815260200160002060009054906101000a900473ffffffffffffffffffffffffffffffffffffffff16600067ffffffffffffffff811115611cc457611cc3614127565b5b604051908082528060200260200182016040528015611cf25781602001602082028036833780820191505090505b506120ed565b50601a600085815260200190815260200160002060006101000a81549073ffffffffffffffffffffffffffffffffffffffff021916905550505050565b600080611d4183610d5d565b90508073ffffffffffffffffffffffffffffffffffffffff168473ffffffffffffffffffffffffffffffffffffffff161480611d835750611d828185611792565b5b80611dc157508373ffffffffffffffffffffffffffffffffffffffff16611da984610802565b73ffffffffffffffffffffffffffffffffffffffff16145b91505092915050565b8273ffffffffffffffffffffffffffffffffffffffff16611dea82610d5d565b73ffffffffffffffffffffffffffffffffffffffff1614611e40576040517f08c379a0000000000000000000000000000000000000000000000000000000008152600401611e379061549a565b60405180910390fd5b600073ffffffffffffffffffffffffffffffffffffffff168273ffffffffffffffffffffffffffffffffffffffff161415611eb0576040517f08c379a0000000000000000000000000000000000000000000000000000000008152600401611ea79061552c565b60405180910390fd5b611ebb83838361285a565b611ec6600082611ad8565b6001600360008573ffffffffffffffffffffffffffffffffffffffff1673ffffffffffffffffffffffffffffffffffffffff1681526020019081526020016000206000828254611f16919061554c565b925050819055506001600360008473ffffffffffffffffffffffffffffffffffffffff1673ffffffffffffffffffffffffffffffffffffffff1681526020019081526020016000206000828254611f6d9190615580565b92505081905550816002600083815260200190815260200160002060006101000a81548173ffffffffffffffffffffffffffffffffffffffff021916908373ffffffffffffffffffffffffffffffffffffffff160217905550808273ffffffffffffffffffffffffffffffffffffffff168473ffffffffffffffffffffffffffffffffffffffff167fddf252ad1be2c89b69c2b068fc378daa952ba7f163c4a11628f55a4df523b3ef60405160405180910390a461202c83838361285f565b505050565b600d60009054906101000a900473ffffffffffffffffffffffffffffffffffffffff1673ffffffffffffffffffffffffffffffffffffffff163373ffffffffffffffffffffffffffffffffffffffff16146120c1576040517f08c379a00000000000000000000000000000000000000000000000000000000081526004016120b890615622565b60405180910390fd5b565b6000600960009054906101000a900473ffffffffffffffffffffffffffffffffffffffff16905090565b60006121008463cab7157560e01b612864565b905083601860008381526020019081526020016000209080519060200190612129929190613c08565b5082601a600083815260200190815260200160002060006101000a81548173ffffffffffffffffffffffffffffffffffffffff021916908373ffffffffffffffffffffffffffffffffffffffff1602179055506000825111156121af57816019600083815260200190815260200160002090805190602001906121ad929190613c8e565b505b9392505050565b8173ffffffffffffffffffffffffffffffffffffffff168373ffffffffffffffffffffffffffffffffffffffff161415612225576040517f08c379a000000000000000000000000000000000000000000000000000000000815260040161221c9061568e565b60405180910390fd5b80600560008573ffffffffffffffffffffffffffffffffffffffff1673ffffffffffffffffffffffffffffffffffffffff16815260200190815260200160002060008473ffffffffffffffffffffffffffffffffffffffff1673ffffffffffffffffffffffffffffffffffffffff16815260200190815260200160002060006101000a81548160ff0219169083151502179055508173ffffffffffffffffffffffffffffffffffffffff168373ffffffffffffffffffffffffffffffffffffffff167f17307eab39ab6107e8899845ad3d59bd9653f200f220920489ca2b5937696c31836040516123169190613f21565b60405180910390a3505050565b61232e848484611dca565b61233a84848484612976565b612379576040517f08c379a000000000000000000000000000000000000000000000000000000000815260040161237090615720565b60405180910390fd5b50505050565b606060405180602001604052806000815250905090565b60606123a182611a85565b60006123ab61237f565b905060008151116123cb57604051806020016040528060008152506123f6565b806123d584612afe565b6040516020016123e6929190614fe4565b6040516020818303038152906040525b915050919050565b6000601960008481526020019081526020016000208054905011156124b05760005b601960008481526020019081526020016000208054905081101561248f5760006019600085815260200190815260200160002082815481106124655761246461509a565b5b9060005260206000200154905061247b81612c5f565b508080612487906151e5565b915050612420565b506019600083815260200190815260200160002060006124af9190613cdb565b5b6000601a600084815260200190815260200160002060009054906101000a900473ffffffffffffffffffffffffffffffffffffffff1690506124f481601354612fef565b612500601354836131c9565b60186000848152602001908152602001600020601760006013548152602001908152602001600020908054612534906148a2565b61253f929190613cfc565b50601460008273ffffffffffffffffffffffffffffffffffffffff1673ffffffffffffffffffffffffffffffffffffffff16815260200190815260200160002060135490806001815401808255809150506001900390600052602060002001600090919091909150556001601460008373ffffffffffffffffffffffffffffffffffffffff1673ffffffffffffffffffffffffffffffffffffffff168152602001908152602001600020805490506125f7919061554c565b601560008373ffffffffffffffffffffffffffffffffffffffff1673ffffffffffffffffffffffffffffffffffffffff168152602001908152602001600020600060135481526020019081526020016000208190555060136000815480929190612660906151e5565b9190505550601a600084815260200190815260200160002060006101000a81549073ffffffffffffffffffffffffffffffffffffffff02191690556018600084815260200190815260200160002060006126ba9190613d89565b505050565b3373ffffffffffffffffffffffffffffffffffffffff168173ffffffffffffffffffffffffffffffffffffffff16141561272e576040517f08c379a00000000000000000000000000000000000000000000000000000000081526004016127259061578c565b60405180910390fd5b80600e60006101000a81548173ffffffffffffffffffffffffffffffffffffffff021916908373ffffffffffffffffffffffffffffffffffffffff1602179055508073ffffffffffffffffffffffffffffffffffffffff16600d60009054906101000a900473ffffffffffffffffffffffffffffffffffffffff1673ffffffffffffffffffffffffffffffffffffffff167fed8889f560326eb138920d842192f0eb3dd22b4f139c87a2c57538e05bae127860405160405180910390a350565b60008073ffffffffffffffffffffffffffffffffffffffff166002600084815260200190815260200160002060009054906101000a900473ffffffffffffffffffffffffffffffffffffffff1673ffffffffffffffffffffffffffffffffffffffff1614159050919050565b505050565b505050565b600080612874601154308561323d565b90506128df6040518060400160405280600381526020017f6765740000000000000000000000000000000000000000000000000000000000815250856040516020016128c0919061581e565b6040516020818303038152906040528361326e9092919063ffffffff16565b61295e6040518060400160405280600481526020017f70617468000000000000000000000000000000000000000000000000000000008152506040518060400160405280600c81526020017f7061796c6f61642c6461746100000000000000000000000000000000000000008152508361326e9092919063ffffffff16565b61296a816012546132a1565b60001c91505092915050565b60006129978473ffffffffffffffffffffffffffffffffffffffff166132d8565b15612af1578373ffffffffffffffffffffffffffffffffffffffff1663150b7a026129c0611ad0565b8786866040518563ffffffff1660e01b81526004016129e29493929190615895565b6020604051808303816000875af1925050508015612a1e57506040513d601f19601f82011682018060405250810190612a1b91906158f6565b60015b612aa1573d8060008114612a4e576040519150601f19603f3d011682016040523d82523d6000602084013e612a53565b606091505b50600081511415612a99576040517f08c379a0000000000000000000000000000000000000000000000000000000008152600401612a9090615720565b60405180910390fd5b805181602001fd5b63150b7a0260e01b7bffffffffffffffffffffffffffffffffffffffffffffffffffffffff1916817bffffffffffffffffffffffffffffffffffffffffffffffffffffffff191614915050612af6565b600190505b949350505050565b60606000821415612b46576040518060400160405280600181526020017f30000000000000000000000000000000000000000000000000000000000000008152509050612c5a565b600082905060005b60008214612b78578080612b61906151e5565b915050600a82612b719190615923565b9150612b4e565b60008167ffffffffffffffff811115612b9457612b93614127565b5b6040519080825280601f01601f191660200182016040528015612bc65781602001600182028036833780820191505090505b5090505b60008514612c5357600182612bdf919061554c565b9150600a85612bee91906153f7565b6030612bfa9190615580565b60f81b818381518110612c1057612c0f61509a565b5b60200101907effffffffffffffffffffffffffffffffffffffffffffffffffffffffffffff1916908160001a905350600a85612c4c9190615923565b9450612bca565b8093505050505b919050565b6000612c6a82610d5d565b90506000601560008373ffffffffffffffffffffffffffffffffffffffff1673ffffffffffffffffffffffffffffffffffffffff1681526020019081526020016000206000848152602001908152602001600020549050612cca836132fb565b601660008373ffffffffffffffffffffffffffffffffffffffff1673ffffffffffffffffffffffffffffffffffffffff168152602001908152602001600020839080600181540180825580915050600190039060005260206000200160009091909190915055601460008373ffffffffffffffffffffffffffffffffffffffff1673ffffffffffffffffffffffffffffffffffffffff1681526020019081526020016000206001601460008573ffffffffffffffffffffffffffffffffffffffff1673ffffffffffffffffffffffffffffffffffffffff16815260200190815260200160002080549050612dbe919061554c565b81548110612dcf57612dce61509a565b5b9060005260206000200154601460008473ffffffffffffffffffffffffffffffffffffffff1673ffffffffffffffffffffffffffffffffffffffff1681526020019081526020016000208281548110612e2b57612e2a61509a565b5b906000526020600020018190555080601560008473ffffffffffffffffffffffffffffffffffffffff1673ffffffffffffffffffffffffffffffffffffffff1681526020019081526020016000206000601460008673ffffffffffffffffffffffffffffffffffffffff1673ffffffffffffffffffffffffffffffffffffffff1681526020019081526020016000208481548110612ecc57612ecb61509a565b5b9060005260206000200154815260200190815260200160002081905550601460008373ffffffffffffffffffffffffffffffffffffffff1673ffffffffffffffffffffffffffffffffffffffff1681526020019081526020016000206001601460008573ffffffffffffffffffffffffffffffffffffffff1673ffffffffffffffffffffffffffffffffffffffff16815260200190815260200160002080549050612f77919061554c565b81548110612f8857612f8761509a565b5b9060005260206000200160009055601560008373ffffffffffffffffffffffffffffffffffffffff1673ffffffffffffffffffffffffffffffffffffffff168152602001908152602001600020600084815260200190815260200160002060009055505050565b600073ffffffffffffffffffffffffffffffffffffffff168273ffffffffffffffffffffffffffffffffffffffff16141561305f576040517f08c379a0000000000000000000000000000000000000000000000000000000008152600401613056906159a0565b60405180910390fd5b613068816127ee565b156130a8576040517f08c379a000000000000000000000000000000000000000000000000000000000815260040161309f90615a0c565b60405180910390fd5b6130b46000838361285a565b6001600360008473ffffffffffffffffffffffffffffffffffffffff1673ffffffffffffffffffffffffffffffffffffffff16815260200190815260200160002060008282546131049190615580565b92505081905550816002600083815260200190815260200160002060006101000a81548173ffffffffffffffffffffffffffffffffffffffff021916908373ffffffffffffffffffffffffffffffffffffffff160217905550808273ffffffffffffffffffffffffffffffffffffffff16600073ffffffffffffffffffffffffffffffffffffffff167fddf252ad1be2c89b69c2b068fc378daa952ba7f163c4a11628f55a4df523b3ef60405160405180910390a46131c56000838361285f565b5050565b6131d2826127ee565b613211576040517f08c379a000000000000000000000000000000000000000000000000000000000815260040161320890615a9e565b60405180910390fd5b80600660008481526020019081526020016000209080519060200190613238929190613c08565b505050565b613245613dc9565b61324d613dc9565b6132648585858461334e909392919063ffffffff16565b9150509392505050565b6132858284608001516133fe90919063ffffffff16565b61329c8184608001516133fe90919063ffffffff16565b505050565b60006132d0600a60009054906101000a900473ffffffffffffffffffffffffffffffffffffffff168484613423565b905092915050565b6000808273ffffffffffffffffffffffffffffffffffffffff163b119050919050565b613304816134ef565b6000600660008381526020019081526020016000208054613324906148a2565b90501461334b5760066000828152602001908152602001600020600061334a9190613d89565b5b50565b613356613dc9565b613366856080015161010061360c565b508385600001818152505082856020019073ffffffffffffffffffffffffffffffffffffffff16908173ffffffffffffffffffffffffffffffffffffffff16815250508185604001907bffffffffffffffffffffffffffffffffffffffffffffffffffffffff191690817bffffffffffffffffffffffffffffffffffffffffffffffffffffffff191681525050849050949350505050565b61340b8260038351613676565b61341e81836137fb90919063ffffffff16565b505050565b600080600b5490506001816134389190615580565b600b819055506000634042994660e01b60008087600001513089604001518760018c6080015160000151604051602401613479989796959493929190615acd565b604051602081830303815290604052907bffffffffffffffffffffffffffffffffffffffffffffffffffffffff19166020820180517bffffffffffffffffffffffffffffffffffffffffffffffffffffffff838183161783525050505090506134e48683868461381d565b925050509392505050565b60006134fa82610d5d565b90506135088160008461285a565b613513600083611ad8565b6001600360008373ffffffffffffffffffffffffffffffffffffffff1673ffffffffffffffffffffffffffffffffffffffff1681526020019081526020016000206000828254613563919061554c565b925050819055506002600083815260200190815260200160002060006101000a81549073ffffffffffffffffffffffffffffffffffffffff021916905581600073ffffffffffffffffffffffffffffffffffffffff168273ffffffffffffffffffffffffffffffffffffffff167fddf252ad1be2c89b69c2b068fc378daa952ba7f163c4a11628f55a4df523b3ef60405160405180910390a46136088160008461285f565b5050565b613614613e36565b600060208361362391906153f7565b1461364f5760208261363591906153f7565b6020613641919061554c565b8261364c9190615580565b91505b81836020018181525050604051808452600081528281016020016040525082905092915050565b60178167ffffffffffffffff16116136ad576136a78160058460ff16901b60ff1617846139b290919063ffffffff16565b506137f6565b60ff8167ffffffffffffffff1611613703576136dc601860058460ff16901b17846139b290919063ffffffff16565b506136fd8167ffffffffffffffff166001856139d29092919063ffffffff16565b506137f5565b61ffff8167ffffffffffffffff161161375a57613733601960058460ff16901b17846139b290919063ffffffff16565b506137548167ffffffffffffffff166002856139d29092919063ffffffff16565b506137f4565b63ffffffff8167ffffffffffffffff16116137b35761378c601a60058460ff16901b17846139b290919063ffffffff16565b506137ad8167ffffffffffffffff166004856139d29092919063ffffffff16565b506137f3565b6137d0601b60058460ff16901b17846139b290919063ffffffff16565b506137f18167ffffffffffffffff166008856139d29092919063ffffffff16565b505b5b5b5b505050565b613803613e36565b613815838460000151518485516139f4565b905092915050565b60003084604051602001613832929190615bcd565b60405160208183030381529060405280519060200120905084600c600083815260200190815260200160002060006101000a81548173ffffffffffffffffffffffffffffffffffffffff021916908373ffffffffffffffffffffffffffffffffffffffff160217905550807fb5e6e01e79f91267dc17b4e6314d5d4d03593d2ceee0fbb452b750bd70ea5af960405160405180910390a2600960009054906101000a900473ffffffffffffffffffffffffffffffffffffffff1673ffffffffffffffffffffffffffffffffffffffff16634000aea08685856040518463ffffffff1660e01b815260040161392893929190615bf9565b6020604051808303816000875af1158015613947573d6000803e3d6000fd5b505050506040513d601f19601f8201168201806040525081019061396b9190614b33565b6139aa576040517f08c379a00000000000000000000000000000000000000000000000000000000081526004016139a190615ca9565b60405180910390fd5b949350505050565b6139ba613e36565b6139ca8384600001515184613ae3565b905092915050565b6139da613e36565b6139eb848560000151518585613b3a565b90509392505050565b6139fc613e36565b8251821115613a0a57600080fd5b84602001518285613a1b9190615580565b1115613a5057613a4f856002613a4088602001518887613a3b9190615580565b613bc8565b613a4a9190615cc9565b613be4565b5b600080865180518760208301019350808887011115613a6f5787860182525b60208701925050505b60208410613ab65780518252602082613a919190615580565b9150602081613aa09190615580565b9050602084613aaf919061554c565b9350613a78565b60006001856020036101000a03905080198251168184511681811785525050508692505050949350505050565b613aeb613e36565b83602001518310613b1157613b108460028660200151613b0b9190615cc9565b613be4565b5b8351805160208583010184815381861415613b2d576001820183525b5050508390509392505050565b613b42613e36565b84602001518483613b539190615580565b1115613b7b57613b7a8560028685613b6b9190615580565b613b759190615cc9565b613be4565b5b6000600183610100613b8d9190615e56565b613b97919061554c565b90508551838682010185831982511617815281518588011115613bba5784870182525b505085915050949350505050565b600081831115613bda57829050613bde565b8190505b92915050565b600082600001519050613bf7838361360c565b50613c0283826137fb565b50505050565b828054613c14906148a2565b90600052602060002090601f016020900481019282613c365760008555613c7d565b82601f10613c4f57805160ff1916838001178555613c7d565b82800160010185558215613c7d579182015b82811115613c7c578251825591602001919060010190613c61565b5b509050613c8a9190613e50565b5090565b828054828255906000526020600020908101928215613cca579160200282015b82811115613cc9578251825591602001919060010190613cae565b5b509050613cd79190613e50565b5090565b5080546000825590600052602060002090810190613cf99190613e50565b50565b828054613d08906148a2565b90600052602060002090601f016020900481019282613d2a5760008555613d78565b82601f10613d3b5780548555613d78565b82800160010185558215613d7857600052602060002091601f016020900482015b82811115613d77578254825591600101919060010190613d5c565b5b509050613d859190613e50565b5090565b508054613d95906148a2565b6000825580601f10613da75750613dc6565b601f016020900490600052602060002090810190613dc59190613e50565b5b50565b6040518060a0016040528060008019168152602001600073ffffffffffffffffffffffffffffffffffffffff16815260200160007bffffffffffffffffffffffffffffffffffffffffffffffffffffffff1916815260200160008152602001613e30613e36565b81525090565b604051806040016040528060608152602001600081525090565b5b80821115613e69576000816000905550600101613e51565b5090565b6000604051905090565b600080fd5b600080fd5b60007fffffffff0000000000000000000000000000000000000000000000000000000082169050919050565b613eb681613e81565b8114613ec157600080fd5b50565b600081359050613ed381613ead565b92915050565b600060208284031215613eef57613eee613e77565b5b6000613efd84828501613ec4565b91505092915050565b60008115159050919050565b613f1b81613f06565b82525050565b6000602082019050613f366000830184613f12565b92915050565b600081519050919050565b600082825260208201905092915050565b60005b83811015613f76578082015181840152602081019050613f5b565b83811115613f85576000848401525b50505050565b6000601f19601f8301169050919050565b6000613fa782613f3c565b613fb18185613f47565b9350613fc1818560208601613f58565b613fca81613f8b565b840191505092915050565b60006020820190508181036000830152613fef8184613f9c565b905092915050565b6000819050919050565b61400a81613ff7565b811461401557600080fd5b50565b60008135905061402781614001565b92915050565b60006020828403121561404357614042613e77565b5b600061405184828501614018565b91505092915050565b600073ffffffffffffffffffffffffffffffffffffffff82169050919050565b60006140858261405a565b9050919050565b6140958161407a565b82525050565b60006020820190506140b0600083018461408c565b92915050565b6140bf8161407a565b81146140ca57600080fd5b50565b6000813590506140dc816140b6565b92915050565b600080604083850312156140f9576140f8613e77565b5b6000614107858286016140cd565b925050602061411885828601614018565b9150509250929050565b600080fd5b7f4e487b7100000000000000000000000000000000000000000000000000000000600052604160045260246000fd5b61415f82613f8b565b810181811067ffffffffffffffff8211171561417e5761417d614127565b5b80604052505050565b6000614191613e6d565b905061419d8282614156565b919050565b600067ffffffffffffffff8211156141bd576141bc614127565b5b602082029050602081019050919050565b600080fd5b60006141e66141e1846141a2565b614187565b90508083825260208201905060208402830185811115614209576142086141ce565b5b835b81811015614232578061421e8882614018565b84526020840193505060208101905061420b565b5050509392505050565b600082601f83011261425157614250614122565b5b81356142618482602086016141d3565b91505092915050565b6000806040838503121561428157614280613e77565b5b600061428f85828601614018565b925050602083013567ffffffffffffffff8111156142b0576142af613e7c565b5b6142bc8582860161423c565b9150509250929050565b6000806000606084860312156142df576142de613e77565b5b60006142ed868287016140cd565b93505060206142fe868287016140cd565b925050604061430f86828701614018565b9150509250925092565b60006020828403121561432f5761432e613e77565b5b600061433d848285016140cd565b91505092915050565b600081519050919050565b600082825260208201905092915050565b6000819050602082019050919050565b61437b81613ff7565b82525050565b600061438d8383614372565b60208301905092915050565b6000602082019050919050565b60006143b182614346565b6143bb8185614351565b93506143c683614362565b8060005b838110156143f75781516143de8882614381565b97506143e983614399565b9250506001810190506143ca565b5085935050505092915050565b6000602082019050818103600083015261441e81846143a6565b905092915050565b6000819050919050565b600061444b6144466144418461405a565b614426565b61405a565b9050919050565b600061445d82614430565b9050919050565b600061446f82614452565b9050919050565b61447f81614464565b82525050565b600060208201905061449a6000830184614476565b92915050565b6144a981613ff7565b82525050565b60006020820190506144c460008301846144a0565b92915050565b600080fd5b600067ffffffffffffffff8211156144ea576144e9614127565b5b6144f382613f8b565b9050602081019050919050565b82818337600083830152505050565b600061452261451d846144cf565b614187565b90508281526020810184848401111561453e5761453d6144ca565b5b614549848285614500565b509392505050565b600082601f83011261456657614565614122565b5b813561457684826020860161450f565b91505092915050565b60006020828403121561459557614594613e77565b5b600082013567ffffffffffffffff8111156145b3576145b2613e7c565b5b6145bf84828501614551565b91505092915050565b6145d181613f06565b81146145dc57600080fd5b50565b6000813590506145ee816145c8565b92915050565b6000806040838503121561460b5761460a613e77565b5b6000614619858286016140cd565b925050602061462a858286016145df565b9150509250929050565b600067ffffffffffffffff82111561464f5761464e614127565b5b61465882613f8b565b9050602081019050919050565b600061467861467384614634565b614187565b905082815260208101848484011115614694576146936144ca565b5b61469f848285614500565b509392505050565b600082601f8301126146bc576146bb614122565b5b81356146cc848260208601614665565b91505092915050565b600080600080608085870312156146ef576146ee613e77565b5b60006146fd878288016140cd565b945050602061470e878288016140cd565b935050604061471f87828801614018565b925050606085013567ffffffffffffffff8111156147405761473f613e7c565b5b61474c878288016146a7565b91505092959194509250565b6000819050919050565b61476b81614758565b811461477657600080fd5b50565b60008135905061478881614762565b92915050565b600080604083850312156147a5576147a4613e77565b5b60006147b385828601614779565b925050602083013567ffffffffffffffff8111156147d4576147d3613e7c565b5b6147e0858286016146a7565b9150509250929050565b6000806040838503121561480157614800613e77565b5b600061480f858286016140cd565b9250506020614820858286016140cd565b9150509250929050565b6000602082840312156148405761483f613e77565b5b600082013567ffffffffffffffff81111561485e5761485d613e7c565b5b61486a8482850161423c565b91505092915050565b7f4e487b7100000000000000000000000000000000000000000000000000000000600052602260045260246000fd5b600060028204905060018216806148ba57607f821691505b602082108114156148ce576148cd614873565b5b50919050565b7f4552433732313a20617070726f76616c20746f2063757272656e74206f776e6560008201527f7200000000000000000000000000000000000000000000000000000000000000602082015250565b6000614930602183613f47565b915061493b826148d4565b604082019050919050565b6000602082019050818103600083015261495f81614923565b9050919050565b7f4552433732313a20617070726f76652063616c6c6572206973206e6f7420746f60008201527f6b656e206f776e6572206e6f7220617070726f76656420666f7220616c6c0000602082015250565b60006149c2603e83613f47565b91506149cd82614966565b604082019050919050565b600060208201905081810360008301526149f1816149b5565b9050919050565b6000604082019050614a0d600083018561408c565b614a1a602083018461408c565b9392505050565b7f4552433732313a2063616c6c6572206973206e6f7420746f6b656e206f776e6560008201527f72206e6f7220617070726f766564000000000000000000000000000000000000602082015250565b6000614a7d602e83613f47565b9150614a8882614a21565b604082019050919050565b60006020820190508181036000830152614aac81614a70565b9050919050565b600081519050614ac281614001565b92915050565b600060208284031215614ade57614add613e77565b5b6000614aec84828501614ab3565b91505092915050565b6000604082019050614b0a600083018561408c565b614b1760208301846144a0565b9392505050565b600081519050614b2d816145c8565b92915050565b600060208284031215614b4957614b48613e77565b5b6000614b5784828501614b1e565b91505092915050565b7f556e61626c6520746f207472616e736665720000000000000000000000000000600082015250565b6000614b96601283613f47565b9150614ba182614b60565b602082019050919050565b60006020820190508181036000830152614bc581614b89565b9050919050565b600081905092915050565b50565b6000614be7600083614bcc565b9150614bf282614bd7565b600082019050919050565b6000614c0882614bda565b9150819050919050565b7f4552433732313a20696e76616c696420746f6b656e2049440000000000000000600082015250565b6000614c48601883613f47565b9150614c5382614c12565b602082019050919050565b60006020820190508181036000830152614c7781614c3b565b9050919050565b7f4552433732313a2061646472657373207a65726f206973206e6f74206120766160008201527f6c6964206f776e65720000000000000000000000000000000000000000000000602082015250565b6000614cda602983613f47565b9150614ce582614c7e565b604082019050919050565b60006020820190508181036000830152614d0981614ccd565b9050919050565b7f4d7573742062652070726f706f736564206f776e657200000000000000000000600082015250565b6000614d46601683613f47565b9150614d5182614d10565b602082019050919050565b60006020820190508181036000830152614d7581614d39565b9050919050565b7f496e76616c6964207061796d656e740000000000000000000000000000000000600082015250565b6000614db2600f83613f47565b9150614dbd82614d7c565b602082019050919050565b60006020820190508181036000830152614de181614da5565b9050919050565b7f576f7264206d75737420657869737420696e2074686520776f72642062616e6b600082015250565b6000614e1e602083613f47565b9150614e2982614de8565b602082019050919050565b60006020820190508181036000830152614e4d81614e11565b9050919050565b614e5d81614758565b82525050565b600067ffffffffffffffff82169050919050565b614e8081614e63565b82525050565b6000819050919050565b600061ffff82169050919050565b6000614eb9614eb4614eaf84614e86565b614426565b614e90565b9050919050565b614ec981614e9e565b82525050565b6000819050919050565b600063ffffffff82169050919050565b6000614f04614eff614efa84614ecf565b614426565b614ed9565b9050919050565b614f1481614ee9565b82525050565b6000819050919050565b6000614f3f614f3a614f3584614f1a565b614426565b614ed9565b9050919050565b614f4f81614f24565b82525050565b600060a082019050614f6a6000830188614e54565b614f776020830187614e77565b614f846040830186614ec0565b614f916060830185614f0b565b614f9e6080830184614f46565b9695505050505050565b600081905092915050565b6000614fbe82613f3c565b614fc88185614fa8565b9350614fd8818560208601613f58565b80840191505092915050565b6000614ff08285614fb3565b9150614ffc8284614fb3565b91508190509392505050565b7f536f75726365206d75737420626520746865206f7261636c65206f662074686560008201527f2072657175657374000000000000000000000000000000000000000000000000602082015250565b6000615064602883613f47565b915061506f82615008565b604082019050919050565b6000602082019050818103600083015261509381615057565b9050919050565b7f4e487b7100000000000000000000000000000000000000000000000000000000600052603260045260246000fd5b7f2532300000000000000000000000000000000000000000000000000000000000815250565b60008190508160005260206000209050919050565b60008154615111816148a2565b61511b8186614fa8565b9450600182166000811461513657600181146151475761517a565b60ff1983168652818601935061517a565b615150856150ef565b60005b8381101561517257815481890152600182019150602081019050615153565b838801955050505b50505092915050565b600061518f8285614fb3565b915061519a826150c9565b6003820191506151aa8284615104565b91508190509392505050565b7f4e487b7100000000000000000000000000000000000000000000000000000000600052601160045260246000fd5b60006151f082613ff7565b91507fffffffffffffffffffffffffffffffffffffffffffffffffffffffffffffffff821415615223576152226151b6565b5b600182019050919050565b600067ffffffffffffffff82111561524957615248614127565b5b602082029050602081019050919050565b600061526d615268846144cf565b614187565b905082815260208101848484011115615289576152886144ca565b5b615294848285613f58565b509392505050565b600082601f8301126152b1576152b0614122565b5b81516152c184826020860161525a565b91505092915050565b60006152dd6152d88461522e565b614187565b90508083825260208201905060208402830185811115615300576152ff6141ce565b5b835b8181101561534757805167ffffffffffffffff81111561532557615324614122565b5b808601615332898261529c565b85526020850194505050602081019050615302565b5050509392505050565b600082601f83011261536657615365614122565b5b81516153768482602086016152ca565b91505092915050565b60006020828403121561539557615394613e77565b5b600082015167ffffffffffffffff8111156153b3576153b2613e7c565b5b6153bf84828501615351565b91505092915050565b7f4e487b7100000000000000000000000000000000000000000000000000000000600052601260045260246000fd5b600061540282613ff7565b915061540d83613ff7565b92508261541d5761541c6153c8565b5b828206905092915050565b7f4552433732313a207472616e736665722066726f6d20696e636f72726563742060008201527f6f776e6572000000000000000000000000000000000000000000000000000000602082015250565b6000615484602583613f47565b915061548f82615428565b604082019050919050565b600060208201905081810360008301526154b381615477565b9050919050565b7f4552433732313a207472616e7366657220746f20746865207a65726f2061646460008201527f7265737300000000000000000000000000000000000000000000000000000000602082015250565b6000615516602483613f47565b9150615521826154ba565b604082019050919050565b6000602082019050818103600083015261554581615509565b9050919050565b600061555782613ff7565b915061556283613ff7565b925082821015615575576155746151b6565b5b828203905092915050565b600061558b82613ff7565b915061559683613ff7565b9250827fffffffffffffffffffffffffffffffffffffffffffffffffffffffffffffffff038211156155cb576155ca6151b6565b5b828201905092915050565b7f4f6e6c792063616c6c61626c65206279206f776e657200000000000000000000600082015250565b600061560c601683613f47565b9150615617826155d6565b602082019050919050565b6000602082019050818103600083015261563b816155ff565b9050919050565b7f4552433732313a20617070726f766520746f2063616c6c657200000000000000600082015250565b6000615678601983613f47565b915061568382615642565b602082019050919050565b600060208201905081810360008301526156a78161566b565b9050919050565b7f4552433732313a207472616e7366657220746f206e6f6e20455243373231526560008201527f63656976657220696d706c656d656e7465720000000000000000000000000000602082015250565b600061570a603283613f47565b9150615715826156ae565b604082019050919050565b60006020820190508181036000830152615739816156fd565b9050919050565b7f43616e6e6f74207472616e7366657220746f2073656c66000000000000000000600082015250565b6000615776601783613f47565b915061578182615740565b602082019050919050565b600060208201905081810360008301526157a581615769565b9050919050565b7f68747470733a2f2f6e6f72646c652d7365727665722d6c747539672e6f6e646960008201527f676974616c6f6365616e2e6170702f647261773f7068726173653d0000000000602082015250565b6000615808603b83614fa8565b9150615813826157ac565b603b82019050919050565b6000615829826157fb565b91506158358284614fb3565b915081905092915050565b600081519050919050565b600082825260208201905092915050565b600061586782615840565b615871818561584b565b9350615881818560208601613f58565b61588a81613f8b565b840191505092915050565b60006080820190506158aa600083018761408c565b6158b7602083018661408c565b6158c460408301856144a0565b81810360608301526158d6818461585c565b905095945050505050565b6000815190506158f081613ead565b92915050565b60006020828403121561590c5761590b613e77565b5b600061591a848285016158e1565b91505092915050565b600061592e82613ff7565b915061593983613ff7565b925082615949576159486153c8565b5b828204905092915050565b7f4552433732313a206d696e7420746f20746865207a65726f2061646472657373600082015250565b600061598a602083613f47565b915061599582615954565b602082019050919050565b600060208201905081810360008301526159b98161597d565b9050919050565b7f4552433732313a20746f6b656e20616c7265616479206d696e74656400000000600082015250565b60006159f6601c83613f47565b9150615a01826159c0565b602082019050919050565b60006020820190508181036000830152615a25816159e9565b9050919050565b7f45524337323155524953746f726167653a2055524920736574206f66206e6f6e60008201527f6578697374656e7420746f6b656e000000000000000000000000000000000000602082015250565b6000615a88602e83613f47565b9150615a9382615a2c565b604082019050919050565b60006020820190508181036000830152615ab781615a7b565b9050919050565b615ac781613e81565b82525050565b600061010082019050615ae3600083018b61408c565b615af0602083018a6144a0565b615afd6040830189614e54565b615b0a606083018861408c565b615b176080830187615abe565b615b2460a08301866144a0565b615b3160c08301856144a0565b81810360e0830152615b43818461585c565b90509998505050505050505050565b6000615b5d82614452565b9050919050565b60008160601b9050919050565b6000615b7c82615b64565b9050919050565b6000615b8e82615b71565b9050919050565b615ba6615ba182615b52565b615b83565b82525050565b6000819050919050565b615bc7615bc282613ff7565b615bac565b82525050565b6000615bd98285615b95565b601482019150615be98284615bb6565b6020820191508190509392505050565b6000606082019050615c0e600083018661408c565b615c1b60208301856144a0565b8181036040830152615c2d818461585c565b9050949350505050565b7f756e61626c6520746f207472616e73666572416e6443616c6c20746f206f726160008201527f636c650000000000000000000000000000000000000000000000000000000000602082015250565b6000615c93602383613f47565b9150615c9e82615c37565b604082019050919050565b60006020820190508181036000830152615cc281615c86565b9050919050565b6000615cd482613ff7565b9150615cdf83613ff7565b9250817fffffffffffffffffffffffffffffffffffffffffffffffffffffffffffffffff0483118215151615615d1857615d176151b6565b5b828202905092915050565b60008160011c9050919050565b6000808291508390505b6001851115615d7a57808604811115615d5657615d556151b6565b5b6001851615615d655780820291505b8081029050615d7385615d23565b9450615d3a565b94509492505050565b600082615d935760019050615e4f565b81615da15760009050615e4f565b8160018114615db75760028114615dc157615df0565b6001915050615e4f565b60ff841115615dd357615dd26151b6565b5b8360020a915084821115615dea57615de96151b6565b5b50615e4f565b5060208310610133831016604e8410600b8410161715615e255782820a905083811115615e2057615e1f6151b6565b5b615e4f565b615e328484846001615d30565b92509050818404811115615e4957615e486151b6565b5b81810290505b9392505050565b6000615e6182613ff7565b9150615e6c83613ff7565b9250615e997fffffffffffffffffffffffffffffffffffffffffffffffffffffffffffffffff8484615d83565b90509291505056fea2646970667358221220b2bea07887850c53effa849cb07fbf73cb8462623f6a0294df0f6cccf7d3ffd164736f6c634300080c0033",
  "linkReferences": {},
  "deployedLinkReferences": {}
}